{
  "_format": "hh-sol-artifact-1",
  "contractName": "SupplyChain",
  "sourceName": "contracts/SupplyChain.sol",
  "abi": [
    {
      "inputs": [],
      "stateMutability": "nonpayable",
      "type": "constructor"
    },
    {
      "anonymous": false,
      "inputs": [
        {
          "indexed": true,
          "internalType": "uint256",
          "name": "id",
          "type": "uint256"
        },
        {
          "indexed": false,
          "internalType": "string",
          "name": "ipfsHash",
          "type": "string"
        },
        {
          "indexed": true,
          "internalType": "address",
          "name": "manufacturer",
          "type": "address"
        },
        {
          "indexed": false,
          "internalType": "uint256",
          "name": "timestamp",
          "type": "uint256"
        }
      ],
      "name": "ProductCreated",
      "type": "event"
    },
    {
      "anonymous": false,
      "inputs": [
        {
          "indexed": true,
          "internalType": "uint256",
          "name": "id",
          "type": "uint256"
        },
        {
          "indexed": false,
          "internalType": "string",
          "name": "ipfsHash",
          "type": "string"
        },
        {
          "indexed": true,
          "internalType": "address",
          "name": "updatedBy",
          "type": "address"
        },
        {
          "indexed": false,
          "internalType": "uint256",
          "name": "timestamp",
          "type": "uint256"
        }
      ],
      "name": "ProductUpdated",
      "type": "event"
    },
    {
      "anonymous": false,
      "inputs": [
        {
          "indexed": true,
          "internalType": "address",
          "name": "stakeholder",
          "type": "address"
        }
      ],
      "name": "StakeholderAdded",
      "type": "event"
    },
    {
      "inputs": [
        {
          "internalType": "address",
          "name": "_addr",
          "type": "address"
        }
      ],
      "name": "addStakeholder",
      "outputs": [],
      "stateMutability": "nonpayable",
      "type": "function"
    },
    {
      "inputs": [
        {
          "internalType": "string",
          "name": "_ipfsHash",
          "type": "string"
        }
      ],
      "name": "createProduct",
      "outputs": [
        {
          "internalType": "uint256",
          "name": "",
          "type": "uint256"
        }
      ],
      "stateMutability": "nonpayable",
      "type": "function"
    },
    {
      "inputs": [
        {
          "internalType": "uint256",
          "name": "_id",
          "type": "uint256"
        }
      ],
      "name": "getProduct",
      "outputs": [
        {
          "internalType": "string",
          "name": "",
          "type": "string"
        },
        {
          "internalType": "address",
          "name": "",
          "type": "address"
        },
        {
          "internalType": "uint256",
          "name": "",
          "type": "uint256"
        }
      ],
      "stateMutability": "view",
      "type": "function"
    },
    {
      "inputs": [
        {
          "internalType": "uint256",
          "name": "_id",
          "type": "uint256"
        }
      ],
      "name": "getUpdateCount",
      "outputs": [
        {
          "internalType": "uint256",
          "name": "",
          "type": "uint256"
        }
      ],
      "stateMutability": "view",
      "type": "function"
    },
    {
      "inputs": [
        {
          "internalType": "uint256",
          "name": "_id",
          "type": "uint256"
        },
        {
          "internalType": "uint256",
          "name": "_index",
          "type": "uint256"
        }
      ],
      "name": "getUpdateHash",
      "outputs": [
        {
          "internalType": "string",
          "name": "",
          "type": "string"
        }
      ],
      "stateMutability": "view",
      "type": "function"
    },
    {
      "inputs": [],
      "name": "owner",
      "outputs": [
        {
          "internalType": "address",
          "name": "",
          "type": "address"
        }
      ],
      "stateMutability": "view",
      "type": "function"
    },
    {
      "inputs": [],
      "name": "productCount",
      "outputs": [
        {
          "internalType": "uint256",
          "name": "",
          "type": "uint256"
        }
      ],
      "stateMutability": "view",
      "type": "function"
    },
    {
      "inputs": [
        {
          "internalType": "uint256",
          "name": "",
          "type": "uint256"
        }
      ],
      "name": "products",
      "outputs": [
        {
          "internalType": "string",
          "name": "ipfsHash",
          "type": "string"
        },
        {
          "internalType": "address",
          "name": "manufacturer",
          "type": "address"
        },
        {
          "internalType": "uint256",
          "name": "timestamp",
          "type": "uint256"
        },
        {
          "internalType": "bool",
          "name": "exists",
          "type": "bool"
        }
      ],
      "stateMutability": "view",
      "type": "function"
    },
    {
      "inputs": [
        {
          "internalType": "address",
          "name": "",
          "type": "address"
        }
      ],
      "name": "stakeholders",
      "outputs": [
        {
          "internalType": "bool",
          "name": "",
          "type": "bool"
        }
      ],
      "stateMutability": "view",
      "type": "function"
    },
    {
      "inputs": [
        {
          "internalType": "uint256",
          "name": "",
          "type": "uint256"
        },
        {
          "internalType": "uint256",
          "name": "",
          "type": "uint256"
        }
      ],
      "name": "updateHashes",
      "outputs": [
        {
          "internalType": "string",
          "name": "",
          "type": "string"
        }
      ],
      "stateMutability": "view",
      "type": "function"
    },
    {
      "inputs": [
        {
          "internalType": "uint256",
          "name": "_id",
          "type": "uint256"
        },
        {
          "internalType": "string",
          "name": "_ipfsHash",
          "type": "string"
        }
      ],
      "name": "updateProduct",
      "outputs": [],
      "stateMutability": "nonpayable",
      "type": "function"
    }
  ],
  "bytecode": "0x608060405234801561001057600080fd5b5033600360006101000a81548173ffffffffffffffffffffffffffffffffffffffff021916908373ffffffffffffffffffffffffffffffffffffffff1602179055506001600260003373ffffffffffffffffffffffffffffffffffffffff1673ffffffffffffffffffffffffffffffffffffffff16815260200190815260200160002060006101000a81548160ff0219169083151502179055506114b7806100b96000396000f3fe608060405234801561001057600080fd5b50600436106100a95760003560e01c80638da5cb5b116100715780638da5cb5b1461018d578063b9db15b4146101ab578063c07cfca9146101dd578063e0f6ef871461020d578063e5c42fd11461022b578063f716fc2514610247576100a9565b806302ec06be146100ae5780633d3377f4146100de57806351cf1a361461010e578063522ae8b61461013e5780637acc0b201461015a575b600080fd5b6100c860048036038101906100c39190610b3e565b610277565b6040516100d59190610ba4565b60405180910390f35b6100f860048036038101906100f39190610beb565b610492565b6040516101059190610ba4565b60405180910390f35b61012860048036038101906101239190610c18565b6104b2565b6040516101359190610ce8565b60405180910390f35b61015860048036038101906101539190610d0a565b610574565b005b610174600480360381019061016f9190610beb565b61069d565b6040516101849493929190610dc6565b60405180910390f35b610195610782565b6040516101a29190610e12565b60405180910390f35b6101c560048036038101906101c09190610beb565b6107a8565b6040516101d493929190610e2d565b60405180910390f35b6101f760048036038101906101f29190610e97565b6108f8565b6040516102049190610ec4565b60405180910390f35b610215610918565b6040516102229190610ba4565b60405180910390f35b61024560048036038101906102409190610e97565b61091e565b005b610261600480360381019061025c9190610c18565b610a16565b60405161026e9190610ce8565b60405180910390f35b6000600260003373ffffffffffffffffffffffffffffffffffffffff1673ffffffffffffffffffffffffffffffffffffffff16815260200190815260200160002060009054906101000a900460ff166102cf57600080fd5b600460008154809291906102e290610f0e565b91905055506000423360045460405160200161030093929190610fbf565b6040516020818303038152906040528051906020012060001c9050604051806080016040528085858080601f016020809104026020016040519081016040528093929190818152602001838380828437600081840152601f19601f8201169050808301925050505050505081526020013373ffffffffffffffffffffffffffffffffffffffff1681526020014281526020016001151581525060008083815260200190815260200160002060008201518160000190816103c09190611237565b5060208201518160010160006101000a81548173ffffffffffffffffffffffffffffffffffffffff021916908373ffffffffffffffffffffffffffffffffffffffff1602179055506040820151816002015560608201518160030160006101000a81548160ff0219169083151502179055509050503373ffffffffffffffffffffffffffffffffffffffff16817f90934fc9dc1095f968f4207cb62e27da1da3e31653ff34cbf837b6c349ded76086864260405161048093929190611345565b60405180910390a38091505092915050565b600060016000838152602001908152602001600020805490509050919050565b60606001600084815260200190815260200160002082815481106104d9576104d8611377565b5b9060005260206000200180546104ee9061105a565b80601f016020809104026020016040519081016040528092919081815260200182805461051a9061105a565b80156105675780601f1061053c57610100808354040283529160200191610567565b820191906000526020600020905b81548152906001019060200180831161054a57829003601f168201915b5050505050905092915050565b600260003373ffffffffffffffffffffffffffffffffffffffff1673ffffffffffffffffffffffffffffffffffffffff16815260200190815260200160002060009054906101000a900460ff166105ca57600080fd5b60008084815260200190815260200160002060030160009054906101000a900460ff166105f657600080fd5b600160008481526020019081526020016000208282909180600181540180825580915050600190039060005260206000200160009091929091929091929091925091826106449291906113b1565b503373ffffffffffffffffffffffffffffffffffffffff16837f1c151cd3e3f678fc0f6fde7e52f450b6d1dcf0ab3aa2d800b6c92615c49e276b84844260405161069093929190611345565b60405180910390a3505050565b60006020528060005260406000206000915090508060000180546106c09061105a565b80601f01602080910402602001604051908101604052809291908181526020018280546106ec9061105a565b80156107395780601f1061070e57610100808354040283529160200191610739565b820191906000526020600020905b81548152906001019060200180831161071c57829003601f168201915b5050505050908060010160009054906101000a900473ffffffffffffffffffffffffffffffffffffffff16908060020154908060030160009054906101000a900460ff16905084565b600360009054906101000a900473ffffffffffffffffffffffffffffffffffffffff1681565b606060008060008060008681526020019081526020016000206040518060800160405290816000820180546107dc9061105a565b80601f01602080910402602001604051908101604052809291908181526020018280546108089061105a565b80156108555780601f1061082a57610100808354040283529160200191610855565b820191906000526020600020905b81548152906001019060200180831161083857829003601f168201915b505050505081526020016001820160009054906101000a900473ffffffffffffffffffffffffffffffffffffffff1673ffffffffffffffffffffffffffffffffffffffff1673ffffffffffffffffffffffffffffffffffffffff168152602001600282015481526020016003820160009054906101000a900460ff1615151515815250509050806000015181602001518260400151935093509350509193909250565b60026020528060005260406000206000915054906101000a900460ff1681565b60045481565b600360009054906101000a900473ffffffffffffffffffffffffffffffffffffffff1673ffffffffffffffffffffffffffffffffffffffff163373ffffffffffffffffffffffffffffffffffffffff161461097857600080fd5b6001600260008373ffffffffffffffffffffffffffffffffffffffff1673ffffffffffffffffffffffffffffffffffffffff16815260200190815260200160002060006101000a81548160ff0219169083151502179055508073ffffffffffffffffffffffffffffffffffffffff167fd9b802c55a7d0aabbc6554676754b5b4aabc8edf1d540b77812f81f6d4409ea160405160405180910390a250565b60016020528160005260406000208181548110610a3257600080fd5b90600052602060002001600091509150508054610a4e9061105a565b80601f0160208091040260200160405190810160405280929190818152602001828054610a7a9061105a565b8015610ac75780601f10610a9c57610100808354040283529160200191610ac7565b820191906000526020600020905b815481529060010190602001808311610aaa57829003601f168201915b505050505081565b600080fd5b600080fd5b600080fd5b600080fd5b600080fd5b60008083601f840112610afe57610afd610ad9565b5b8235905067ffffffffffffffff811115610b1b57610b1a610ade565b5b602083019150836001820283011115610b3757610b36610ae3565b5b9250929050565b60008060208385031215610b5557610b54610acf565b5b600083013567ffffffffffffffff811115610b7357610b72610ad4565b5b610b7f85828601610ae8565b92509250509250929050565b6000819050919050565b610b9e81610b8b565b82525050565b6000602082019050610bb96000830184610b95565b92915050565b610bc881610b8b565b8114610bd357600080fd5b50565b600081359050610be581610bbf565b92915050565b600060208284031215610c0157610c00610acf565b5b6000610c0f84828501610bd6565b91505092915050565b60008060408385031215610c2f57610c2e610acf565b5b6000610c3d85828601610bd6565b9250506020610c4e85828601610bd6565b9150509250929050565b600081519050919050565b600082825260208201905092915050565b60005b83811015610c92578082015181840152602081019050610c77565b60008484015250505050565b6000601f19601f8301169050919050565b6000610cba82610c58565b610cc48185610c63565b9350610cd4818560208601610c74565b610cdd81610c9e565b840191505092915050565b60006020820190508181036000830152610d028184610caf565b905092915050565b600080600060408486031215610d2357610d22610acf565b5b6000610d3186828701610bd6565b935050602084013567ffffffffffffffff811115610d5257610d51610ad4565b5b610d5e86828701610ae8565b92509250509250925092565b600073ffffffffffffffffffffffffffffffffffffffff82169050919050565b6000610d9582610d6a565b9050919050565b610da581610d8a565b82525050565b60008115159050919050565b610dc081610dab565b82525050565b60006080820190508181036000830152610de08187610caf565b9050610def6020830186610d9c565b610dfc6040830185610b95565b610e096060830184610db7565b95945050505050565b6000602082019050610e276000830184610d9c565b92915050565b60006060820190508181036000830152610e478186610caf565b9050610e566020830185610d9c565b610e636040830184610b95565b949350505050565b610e7481610d8a565b8114610e7f57600080fd5b50565b600081359050610e9181610e6b565b92915050565b600060208284031215610ead57610eac610acf565b5b6000610ebb84828501610e82565b91505092915050565b6000602082019050610ed96000830184610db7565b92915050565b7f4e487b7100000000000000000000000000000000000000000000000000000000600052601160045260246000fd5b6000610f1982610b8b565b91507fffffffffffffffffffffffffffffffffffffffffffffffffffffffffffffffff8203610f4b57610f4a610edf565b5b600182019050919050565b6000819050919050565b610f71610f6c82610b8b565b610f56565b82525050565b60008160601b9050919050565b6000610f8f82610f77565b9050919050565b6000610fa182610f84565b9050919050565b610fb9610fb482610d8a565b610f96565b82525050565b6000610fcb8286610f60565b602082019150610fdb8285610fa8565b601482019150610feb8284610f60565b602082019150819050949350505050565b7f4e487b7100000000000000000000000000000000000000000000000000000000600052604160045260246000fd5b7f4e487b7100000000000000000000000000000000000000000000000000000000600052602260045260246000fd5b6000600282049050600182168061107257607f821691505b6020821081036110855761108461102b565b5b50919050565b60008190508160005260206000209050919050565b60006020601f8301049050919050565b600082821b905092915050565b6000600883026110ed7fffffffffffffffffffffffffffffffffffffffffffffffffffffffffffffffff826110b0565b6110f786836110b0565b95508019841693508086168417925050509392505050565b6000819050919050565b600061113461112f61112a84610b8b565b61110f565b610b8b565b9050919050565b6000819050919050565b61114e83611119565b61116261115a8261113b565b8484546110bd565b825550505050565b600090565b61117761116a565b611182818484611145565b505050565b5b818110156111a65761119b60008261116f565b600181019050611188565b5050565b601f8211156111eb576111bc8161108b565b6111c5846110a0565b810160208510156111d4578190505b6111e86111e0856110a0565b830182611187565b50505b505050565b600082821c905092915050565b600061120e600019846008026111f0565b1980831691505092915050565b600061122783836111fd565b9150826002028217905092915050565b61124082610c58565b67ffffffffffffffff81111561125957611258610ffc565b5b611263825461105a565b61126e8282856111aa565b600060209050601f8311600181146112a1576000841561128f578287015190505b611299858261121b565b865550611301565b601f1984166112af8661108b565b60005b828110156112d7578489015182556001820191506020850194506020810190506112b2565b868310156112f457848901516112f0601f8916826111fd565b8355505b6001600288020188555050505b505050505050565b82818337600083830152505050565b60006113248385610c63565b9350611331838584611309565b61133a83610c9e565b840190509392505050565b60006040820190508181036000830152611360818587611318565b905061136f6020830184610b95565b949350505050565b7f4e487b7100000000000000000000000000000000000000000000000000000000600052603260045260246000fd5b600082905092915050565b6113bb83836113a6565b67ffffffffffffffff8111156113d4576113d3610ffc565b5b6113de825461105a565b6113e98282856111aa565b6000601f8311600181146114185760008415611406578287013590505b611410858261121b565b865550611478565b601f1984166114268661108b565b60005b8281101561144e57848901358255600182019150602085019450602081019050611429565b8683101561146b5784890135611467601f8916826111fd565b8355505b6001600288020188555050505b5050505050505056fea2646970667358221220896820da78bda2953f1083127e94716576e6aaf4726c9a2cca912ef9d0da4d9564736f6c63430008140033",
  "linkReferences": {},
  "deployedLinkReferences": {}
}